{
  "_format": "hh-sol-artifact-1",
  "contractName": "MedicalRecords",
  "sourceName": "contracts/HealthcareBlockchain.sol",
  "abi": [
    {
      "inputs": [],
      "stateMutability": "nonpayable",
      "type": "constructor"
    },
    {
      "anonymous": false,
      "inputs": [
        {
          "indexed": true,
          "internalType": "address",
          "name": "patient",
          "type": "address"
        },
        {
          "indexed": false,
          "internalType": "string",
          "name": "ipfsHash",
          "type": "string"
        },
        {
          "indexed": false,
          "internalType": "bool",
          "name": "approved",
          "type": "bool"
        },
        {
          "indexed": false,
          "internalType": "uint256",
          "name": "timestamp",
          "type": "uint256"
        }
      ],
      "name": "DocumentApprovalUpdated",
      "type": "event"
    },
    {
      "inputs": [
        {
          "internalType": "address",
          "name": "patient",
          "type": "address"
        },
        {
          "internalType": "string",
          "name": "ipfsHash",
          "type": "string"
        }
      ],
      "name": "addRecord",
      "outputs": [],
      "stateMutability": "nonpayable",
      "type": "function"
    },
    {
      "inputs": [],
      "name": "admin",
      "outputs": [
        {
          "internalType": "address",
          "name": "",
          "type": "address"
        }
      ],
      "stateMutability": "view",
      "type": "function"
    },
    {
      "inputs": [
        {
          "internalType": "address",
          "name": "",
          "type": "address"
        },
        {
          "internalType": "uint256",
          "name": "",
          "type": "uint256"
        }
      ],
      "name": "approvals",
      "outputs": [
        {
          "internalType": "string",
          "name": "ipfsHash",
          "type": "string"
        },
        {
          "internalType": "address",
          "name": "patient",
          "type": "address"
        },
        {
          "internalType": "bool",
          "name": "approved",
          "type": "bool"
        },
        {
          "internalType": "uint256",
          "name": "timestamp",
          "type": "uint256"
        }
      ],
      "stateMutability": "view",
      "type": "function"
    },
    {
      "inputs": [
        {
          "internalType": "string",
          "name": "ipfsHash",
          "type": "string"
        },
        {
          "internalType": "bool",
          "name": "approved",
          "type": "bool"
        }
      ],
      "name": "approveDocument",
      "outputs": [],
      "stateMutability": "nonpayable",
      "type": "function"
    },
    {
      "inputs": [
        {
          "internalType": "address",
          "name": "patient",
          "type": "address"
        }
      ],
      "name": "getDocumentApprovals",
      "outputs": [
        {
          "components": [
            {
              "internalType": "string",
              "name": "ipfsHash",
              "type": "string"
            },
            {
              "internalType": "address",
              "name": "patient",
              "type": "address"
            },
            {
              "internalType": "bool",
              "name": "approved",
              "type": "bool"
            },
            {
              "internalType": "uint256",
              "name": "timestamp",
              "type": "uint256"
            }
          ],
          "internalType": "struct MedicalRecords.DocumentApproval[]",
          "name": "",
          "type": "tuple[]"
        }
      ],
      "stateMutability": "view",
      "type": "function"
    },
    {
      "inputs": [
        {
          "internalType": "address",
          "name": "patient",
          "type": "address"
        }
      ],
      "name": "getRecords",
      "outputs": [
        {
          "components": [
            {
              "internalType": "string",
              "name": "ipfsHash",
              "type": "string"
            },
            {
              "internalType": "uint256",
              "name": "timestamp",
              "type": "uint256"
            }
          ],
          "internalType": "struct MedicalRecords.Record[]",
          "name": "",
          "type": "tuple[]"
        }
      ],
      "stateMutability": "view",
      "type": "function"
    }
  ],
  "bytecode": "0x6080604052348015600f57600080fd5b50336000806101000a81548173ffffffffffffffffffffffffffffffffffffffff021916908373ffffffffffffffffffffffffffffffffffffffff1602179055506115f58061005f6000396000f3fe608060405234801561001057600080fd5b50600436106100625760003560e01c806366858ec81461006757806395555ea414610083578063a0076e841461009f578063cb4a765b146100cf578063f851a440146100ff578063ffabc6731461011d575b600080fd5b610081600480360381019061007c9190610bda565b610150565b005b61009d60048036038101906100989190610c6e565b610281565b005b6100b960048036038101906100b49190610cca565b61048f565b6040516100c69190610e8e565b60405180910390f35b6100e960048036038101906100e49190610cca565b61068d565b6040516100f69190610ff3565b60405180910390f35b6101076108fc565b6040516101149190611024565b60405180910390f35b6101376004803603810190610132919061106b565b610920565b6040516101479493929190611113565b60405180910390f35b60008054906101000a900473ffffffffffffffffffffffffffffffffffffffff1673ffffffffffffffffffffffffffffffffffffffff163373ffffffffffffffffffffffffffffffffffffffff16146101de576040517f08c379a00000000000000000000000000000000000000000000000000000000081526004016101d5906111ab565b60405180910390fd5b600160008373ffffffffffffffffffffffffffffffffffffffff1673ffffffffffffffffffffffffffffffffffffffff1681526020019081526020016000206040518060400160405280838152602001428152509080600181540180825580915050600190039060005260206000209060020201600090919091909150600082015181600001908161027091906113d7565b506020820151816001015550505050565b60008054906101000a900473ffffffffffffffffffffffffffffffffffffffff1673ffffffffffffffffffffffffffffffffffffffff163373ffffffffffffffffffffffffffffffffffffffff160361030f576040517f08c379a0000000000000000000000000000000000000000000000000000000008152600401610306906114f5565b60405180910390fd5b600260003373ffffffffffffffffffffffffffffffffffffffff1673ffffffffffffffffffffffffffffffffffffffff16815260200190815260200160002060405180608001604052808481526020013373ffffffffffffffffffffffffffffffffffffffff168152602001831515815260200142815250908060018154018082558091505060019003906000526020600020906003020160009091909190915060008201518160000190816103c591906113d7565b5060208201518160010160006101000a81548173ffffffffffffffffffffffffffffffffffffffff021916908373ffffffffffffffffffffffffffffffffffffffff16021790555060408201518160010160146101000a81548160ff0219169083151502179055506060820151816002015550503373ffffffffffffffffffffffffffffffffffffffff167fd82650ff623ca7261ea439d2030e7dcc406a0b123a7a6365ac48ca9b82b09d7f83834260405161048393929190611515565b60405180910390a25050565b60608173ffffffffffffffffffffffffffffffffffffffff163373ffffffffffffffffffffffffffffffffffffffff161480610516575060008054906101000a900473ffffffffffffffffffffffffffffffffffffffff1673ffffffffffffffffffffffffffffffffffffffff163373ffffffffffffffffffffffffffffffffffffffff16145b610555576040517f08c379a000000000000000000000000000000000000000000000000000000000815260040161054c9061159f565b60405180910390fd5b600160008373ffffffffffffffffffffffffffffffffffffffff1673ffffffffffffffffffffffffffffffffffffffff168152602001908152602001600020805480602002602001604051908101604052809291908181526020016000905b8282101561068257838290600052602060002090600202016040518060400160405290816000820180546105e7906111fa565b80601f0160208091040260200160405190810160405280929190818152602001828054610613906111fa565b80156106605780601f1061063557610100808354040283529160200191610660565b820191906000526020600020905b81548152906001019060200180831161064357829003601f168201915b50505050508152602001600182015481525050815260200190600101906105b4565b505050509050919050565b60608173ffffffffffffffffffffffffffffffffffffffff163373ffffffffffffffffffffffffffffffffffffffff161480610714575060008054906101000a900473ffffffffffffffffffffffffffffffffffffffff1673ffffffffffffffffffffffffffffffffffffffff163373ffffffffffffffffffffffffffffffffffffffff16145b610753576040517f08c379a000000000000000000000000000000000000000000000000000000000815260040161074a9061159f565b60405180910390fd5b600260008373ffffffffffffffffffffffffffffffffffffffff1673ffffffffffffffffffffffffffffffffffffffff168152602001908152602001600020805480602002602001604051908101604052809291908181526020016000905b828210156108f157838290600052602060002090600302016040518060800160405290816000820180546107e5906111fa565b80601f0160208091040260200160405190810160405280929190818152602001828054610811906111fa565b801561085e5780601f106108335761010080835404028352916020019161085e565b820191906000526020600020905b81548152906001019060200180831161084157829003601f168201915b505050505081526020016001820160009054906101000a900473ffffffffffffffffffffffffffffffffffffffff1673ffffffffffffffffffffffffffffffffffffffff1673ffffffffffffffffffffffffffffffffffffffff1681526020016001820160149054906101000a900460ff16151515158152602001600282015481525050815260200190600101906107b2565b505050509050919050565b60008054906101000a900473ffffffffffffffffffffffffffffffffffffffff1681565b6002602052816000526040600020818154811061093c57600080fd5b906000526020600020906003020160009150915050806000018054610960906111fa565b80601f016020809104026020016040519081016040528092919081815260200182805461098c906111fa565b80156109d95780601f106109ae576101008083540402835291602001916109d9565b820191906000526020600020905b8154815290600101906020018083116109bc57829003601f168201915b5050505050908060010160009054906101000a900473ffffffffffffffffffffffffffffffffffffffff16908060010160149054906101000a900460ff16908060020154905084565b6000604051905090565b600080fd5b600080fd5b600073ffffffffffffffffffffffffffffffffffffffff82169050919050565b6000610a6182610a36565b9050919050565b610a7181610a56565b8114610a7c57600080fd5b50565b600081359050610a8e81610a68565b92915050565b600080fd5b600080fd5b6000601f19601f8301169050919050565b7f4e487b7100000000000000000000000000000000000000000000000000000000600052604160045260246000fd5b610ae782610a9e565b810181811067ffffffffffffffff82111715610b0657610b05610aaf565b5b80604052505050565b6000610b19610a22565b9050610b258282610ade565b919050565b600067ffffffffffffffff821115610b4557610b44610aaf565b5b610b4e82610a9e565b9050602081019050919050565b82818337600083830152505050565b6000610b7d610b7884610b2a565b610b0f565b905082815260208101848484011115610b9957610b98610a99565b5b610ba4848285610b5b565b509392505050565b600082601f830112610bc157610bc0610a94565b5b8135610bd1848260208601610b6a565b91505092915050565b60008060408385031215610bf157610bf0610a2c565b5b6000610bff85828601610a7f565b925050602083013567ffffffffffffffff811115610c2057610c1f610a31565b5b610c2c85828601610bac565b9150509250929050565b60008115159050919050565b610c4b81610c36565b8114610c5657600080fd5b50565b600081359050610c6881610c42565b92915050565b60008060408385031215610c8557610c84610a2c565b5b600083013567ffffffffffffffff811115610ca357610ca2610a31565b5b610caf85828601610bac565b9250506020610cc085828601610c59565b9150509250929050565b600060208284031215610ce057610cdf610a2c565b5b6000610cee84828501610a7f565b91505092915050565b600081519050919050565b600082825260208201905092915050565b6000819050602082019050919050565b600081519050919050565b600082825260208201905092915050565b60005b83811015610d5d578082015181840152602081019050610d42565b60008484015250505050565b6000610d7482610d23565b610d7e8185610d2e565b9350610d8e818560208601610d3f565b610d9781610a9e565b840191505092915050565b6000819050919050565b610db581610da2565b82525050565b60006040830160008301518482036000860152610dd88282610d69565b9150506020830151610ded6020860182610dac565b508091505092915050565b6000610e048383610dbb565b905092915050565b6000602082019050919050565b6000610e2482610cf7565b610e2e8185610d02565b935083602082028501610e4085610d13565b8060005b85811015610e7c5784840389528151610e5d8582610df8565b9450610e6883610e0c565b925060208a01995050600181019050610e44565b50829750879550505050505092915050565b60006020820190508181036000830152610ea88184610e19565b905092915050565b600081519050919050565b600082825260208201905092915050565b6000819050602082019050919050565b610ee581610a56565b82525050565b610ef481610c36565b82525050565b60006080830160008301518482036000860152610f178282610d69565b9150506020830151610f2c6020860182610edc565b506040830151610f3f6040860182610eeb565b506060830151610f526060860182610dac565b508091505092915050565b6000610f698383610efa565b905092915050565b6000602082019050919050565b6000610f8982610eb0565b610f938185610ebb565b935083602082028501610fa585610ecc565b8060005b85811015610fe15784840389528151610fc28582610f5d565b9450610fcd83610f71565b925060208a01995050600181019050610fa9565b50829750879550505050505092915050565b6000602082019050818103600083015261100d8184610f7e565b905092915050565b61101e81610a56565b82525050565b60006020820190506110396000830184611015565b92915050565b61104881610da2565b811461105357600080fd5b50565b6000813590506110658161103f565b92915050565b6000806040838503121561108257611081610a2c565b5b600061109085828601610a7f565b92505060206110a185828601611056565b9150509250929050565b600082825260208201905092915050565b60006110c782610d23565b6110d181856110ab565b93506110e1818560208601610d3f565b6110ea81610a9e565b840191505092915050565b6110fe81610c36565b82525050565b61110d81610da2565b82525050565b6000608082019050818103600083015261112d81876110bc565b905061113c6020830186611015565b61114960408301856110f5565b6111566060830184611104565b95945050505050565b7f4e6f7420617574686f72697a6564000000000000000000000000000000000000600082015250565b6000611195600e836110ab565b91506111a08261115f565b602082019050919050565b600060208201905081810360008301526111c481611188565b9050919050565b7f4e487b7100000000000000000000000000000000000000000000000000000000600052602260045260246000fd5b6000600282049050600182168061121257607f821691505b602082108103611225576112246111cb565b5b50919050565b60008190508160005260206000209050919050565b60006020601f8301049050919050565b600082821b905092915050565b60006008830261128d7fffffffffffffffffffffffffffffffffffffffffffffffffffffffffffffffff82611250565b6112978683611250565b95508019841693508086168417925050509392505050565b6000819050919050565b60006112d46112cf6112ca84610da2565b6112af565b610da2565b9050919050565b6000819050919050565b6112ee836112b9565b6113026112fa826112db565b84845461125d565b825550505050565b600090565b61131761130a565b6113228184846112e5565b505050565b5b818110156113465761133b60008261130f565b600181019050611328565b5050565b601f82111561138b5761135c8161122b565b61136584611240565b81016020851015611374578190505b61138861138085611240565b830182611327565b50505b505050565b600082821c905092915050565b60006113ae60001984600802611390565b1980831691505092915050565b60006113c7838361139d565b9150826002028217905092915050565b6113e082610d23565b67ffffffffffffffff8111156113f9576113f8610aaf565b5b61140382546111fa565b61140e82828561134a565b600060209050601f831160018114611441576000841561142f578287015190505b61143985826113bb565b8655506114a1565b601f19841661144f8661122b565b60005b8281101561147757848901518255600182019150602085019450602081019050611452565b868310156114945784890151611490601f89168261139d565b8355505b6001600288020188555050505b505050505050565b7f41646d696e2063616e6e6f7420617070726f766520646f63756d656e74730000600082015250565b60006114df601e836110ab565b91506114ea826114a9565b602082019050919050565b6000602082019050818103600083015261150e816114d2565b9050919050565b6000606082019050818103600083015261152f81866110bc565b905061153e60208301856110f5565b61154b6040830184611104565b949350505050565b7f556e617574686f72697a65642061636365737300000000000000000000000000600082015250565b60006115896013836110ab565b915061159482611553565b602082019050919050565b600060208201905081810360008301526115b88161157c565b905091905056fea264697066735822122096c43537791de04cba9026b1ee9efcfefe0da9f5a0b7db3f0c129984677c94aa64736f6c634300081c0033",
  "linkReferences": {},
  "deployedLinkReferences": {}
}