{
  "_format": "hh-sol-artifact-1",
  "contractName": "MedicalRecords",
  "sourceName": "contracts/MedicalRecords.sol",
  "abi": [
    {
      "anonymous": false,
      "inputs": [
        {
          "indexed": true,
          "internalType": "address",
          "name": "patient",
          "type": "address"
        },
        {
          "indexed": false,
          "internalType": "string",
          "name": "ipfsHash",
          "type": "string"
        },
        {
          "indexed": false,
          "internalType": "uint256",
          "name": "timestamp",
          "type": "uint256"
        }
      ],
      "name": "DocumentApproved",
      "type": "event"
    },
    {
      "anonymous": false,
      "inputs": [
        {
          "indexed": true,
          "internalType": "address",
          "name": "patient",
          "type": "address"
        },
        {
          "indexed": false,
          "internalType": "string",
          "name": "ipfsHash",
          "type": "string"
        },
        {
          "indexed": false,
          "internalType": "uint256",
          "name": "timestamp",
          "type": "uint256"
        }
      ],
      "name": "RecordAdded",
      "type": "event"
    },
    {
      "inputs": [
        {
          "internalType": "address",
          "name": "patient",
          "type": "address"
        },
        {
          "internalType": "string",
          "name": "ipfsHash",
          "type": "string"
        }
      ],
      "name": "addRecord",
      "outputs": [],
      "stateMutability": "nonpayable",
      "type": "function"
    },
    {
      "inputs": [
        {
          "internalType": "string",
          "name": "ipfsHash",
          "type": "string"
        }
      ],
      "name": "approveDocument",
      "outputs": [],
      "stateMutability": "nonpayable",
      "type": "function"
    },
    {
      "inputs": [
        {
          "internalType": "address",
          "name": "",
          "type": "address"
        },
        {
          "internalType": "string",
          "name": "",
          "type": "string"
        }
      ],
      "name": "approvedDocs",
      "outputs": [
        {
          "internalType": "bool",
          "name": "",
          "type": "bool"
        }
      ],
      "stateMutability": "view",
      "type": "function"
    },
    {
      "inputs": [
        {
          "internalType": "address",
          "name": "patient",
          "type": "address"
        }
      ],
      "name": "getApprovedDocuments",
      "outputs": [
        {
          "internalType": "string[]",
          "name": "",
          "type": "string[]"
        }
      ],
      "stateMutability": "view",
      "type": "function"
    },
    {
      "inputs": [
        {
          "internalType": "address",
          "name": "patient",
          "type": "address"
        }
      ],
      "name": "getRecords",
      "outputs": [
        {
          "components": [
            {
              "internalType": "string",
              "name": "ipfsHash",
              "type": "string"
            },
            {
              "internalType": "uint256",
              "name": "timestamp",
              "type": "uint256"
            }
          ],
          "internalType": "struct MedicalRecords.Record[]",
          "name": "",
          "type": "tuple[]"
        }
      ],
      "stateMutability": "view",
      "type": "function"
    },
    {
      "inputs": [
        {
          "internalType": "address",
          "name": "patient",
          "type": "address"
        },
        {
          "internalType": "string",
          "name": "ipfsHash",
          "type": "string"
        }
      ],
      "name": "isDocumentApproved",
      "outputs": [
        {
          "internalType": "bool",
          "name": "",
          "type": "bool"
        }
      ],
      "stateMutability": "view",
      "type": "function"
    }
  ],
  "bytecode": "0x6080604052348015600f57600080fd5b506112378061001f6000396000f3fe608060405234801561001057600080fd5b50600436106100615760003560e01c80623f1b21146100665780634b2fd0841461009657806366858ec8146100b25780638fb97378146100ce578063a0076e84146100fe578063f02355cd1461012e575b600080fd5b610080600480360381019061007b91906109fc565b61015e565b60405161008d9190610a73565b60405180910390f35b6100b060048036038101906100ab9190610a8e565b6101a3565b005b6100cc60048036038101906100c791906109fc565b610269565b005b6100e860048036038101906100e39190610ad7565b61035b565b6040516100f59190610c45565b60405180910390f35b61011860048036038101906101139190610ad7565b610698565b6040516101259190610d7f565b60405180910390f35b610148600480360381019061014391906109fc565b6107d1565b6040516101559190610a73565b60405180910390f35b6001602052816000526040600020818051602081018201805184825260208301602085012081835280955050505050506000915091509054906101000a900460ff1681565b60018060003373ffffffffffffffffffffffffffffffffffffffff1673ffffffffffffffffffffffffffffffffffffffff168152602001908152602001600020826040516101f19190610ddd565b908152602001604051809103902060006101000a81548160ff0219169083151502179055503373ffffffffffffffffffffffffffffffffffffffff167fa245aff189541e38b90587d3442afbc3055c817390a31f0d18015f4fe17513f4824260405161025e929190610e4d565b60405180910390a250565b6000808373ffffffffffffffffffffffffffffffffffffffff1673ffffffffffffffffffffffffffffffffffffffff168152602001908152602001600020604051806040016040528083815260200142815250908060018154018082558091505060019003906000526020600020906002020160009091909190915060008201518160000190816102fa9190611089565b506020820151816001015550508173ffffffffffffffffffffffffffffffffffffffff167f4b92a41aaac1d087148ec39a65a261cc6ac88ed7765dece5374bb3893fcfcf9e824260405161034f929190610e4d565b60405180910390a25050565b606060008060008473ffffffffffffffffffffffffffffffffffffffff1673ffffffffffffffffffffffffffffffffffffffff168152602001908152602001600020805480602002602001604051908101604052809291908181526020016000905b8282101561048b57838290600052602060002090600202016040518060400160405290816000820180546103f090610eac565b80601f016020809104026020016040519081016040528092919081815260200182805461041c90610eac565b80156104695780601f1061043e57610100808354040283529160200191610469565b820191906000526020600020905b81548152906001019060200180831161044c57829003601f168201915b50505050508152602001600182015481525050815260200190600101906103bd565b5050505090506000805b825181101561054657600160008673ffffffffffffffffffffffffffffffffffffffff1673ffffffffffffffffffffffffffffffffffffffff1681526020019081526020016000208382815181106104f0576104ef61115b565b5b6020026020010151600001516040516105099190610ddd565b908152602001604051809103902060009054906101000a900460ff1615610539578180610535906111b9565b9250505b8080600101915050610495565b5060008167ffffffffffffffff811115610563576105626108d1565b5b60405190808252806020026020018201604052801561059657816020015b60608152602001906001900390816105815790505b5090506000805b845181101561068b57600160008873ffffffffffffffffffffffffffffffffffffffff1673ffffffffffffffffffffffffffffffffffffffff1681526020019081526020016000208582815181106105f8576105f761115b565b5b6020026020010151600001516040516106119190610ddd565b908152602001604051809103902060009054906101000a900460ff161561067e578481815181106106455761064461115b565b5b6020026020010151600001518383815181106106645761066361115b565b5b6020026020010181905250818061067a906111b9565b9250505b808060010191505061059d565b5081945050505050919050565b60606000808373ffffffffffffffffffffffffffffffffffffffff1673ffffffffffffffffffffffffffffffffffffffff168152602001908152602001600020805480602002602001604051908101604052809291908181526020016000905b828210156107c6578382906000526020600020906002020160405180604001604052908160008201805461072b90610eac565b80601f016020809104026020016040519081016040528092919081815260200182805461075790610eac565b80156107a45780601f10610779576101008083540402835291602001916107a4565b820191906000526020600020905b81548152906001019060200180831161078757829003601f168201915b50505050508152602001600182015481525050815260200190600101906106f8565b505050509050919050565b6000600160008473ffffffffffffffffffffffffffffffffffffffff1673ffffffffffffffffffffffffffffffffffffffff168152602001908152602001600020826040516108209190610ddd565b908152602001604051809103902060009054906101000a900460ff16905092915050565b6000604051905090565b600080fd5b600080fd5b600073ffffffffffffffffffffffffffffffffffffffff82169050919050565b600061088382610858565b9050919050565b61089381610878565b811461089e57600080fd5b50565b6000813590506108b08161088a565b92915050565b600080fd5b600080fd5b6000601f19601f8301169050919050565b7f4e487b7100000000000000000000000000000000000000000000000000000000600052604160045260246000fd5b610909826108c0565b810181811067ffffffffffffffff82111715610928576109276108d1565b5b80604052505050565b600061093b610844565b90506109478282610900565b919050565b600067ffffffffffffffff821115610967576109666108d1565b5b610970826108c0565b9050602081019050919050565b82818337600083830152505050565b600061099f61099a8461094c565b610931565b9050828152602081018484840111156109bb576109ba6108bb565b5b6109c684828561097d565b509392505050565b600082601f8301126109e3576109e26108b6565b5b81356109f384826020860161098c565b91505092915050565b60008060408385031215610a1357610a1261084e565b5b6000610a21858286016108a1565b925050602083013567ffffffffffffffff811115610a4257610a41610853565b5b610a4e858286016109ce565b9150509250929050565b60008115159050919050565b610a6d81610a58565b82525050565b6000602082019050610a886000830184610a64565b92915050565b600060208284031215610aa457610aa361084e565b5b600082013567ffffffffffffffff811115610ac257610ac1610853565b5b610ace848285016109ce565b91505092915050565b600060208284031215610aed57610aec61084e565b5b6000610afb848285016108a1565b91505092915050565b600081519050919050565b600082825260208201905092915050565b6000819050602082019050919050565b600081519050919050565b600082825260208201905092915050565b60005b83811015610b6a578082015181840152602081019050610b4f565b60008484015250505050565b6000610b8182610b30565b610b8b8185610b3b565b9350610b9b818560208601610b4c565b610ba4816108c0565b840191505092915050565b6000610bbb8383610b76565b905092915050565b6000602082019050919050565b6000610bdb82610b04565b610be58185610b0f565b935083602082028501610bf785610b20565b8060005b85811015610c335784840389528151610c148582610baf565b9450610c1f83610bc3565b925060208a01995050600181019050610bfb565b50829750879550505050505092915050565b60006020820190508181036000830152610c5f8184610bd0565b905092915050565b600081519050919050565b600082825260208201905092915050565b6000819050602082019050919050565b6000819050919050565b610ca681610c93565b82525050565b60006040830160008301518482036000860152610cc98282610b76565b9150506020830151610cde6020860182610c9d565b508091505092915050565b6000610cf58383610cac565b905092915050565b6000602082019050919050565b6000610d1582610c67565b610d1f8185610c72565b935083602082028501610d3185610c83565b8060005b85811015610d6d5784840389528151610d4e8582610ce9565b9450610d5983610cfd565b925060208a01995050600181019050610d35565b50829750879550505050505092915050565b60006020820190508181036000830152610d998184610d0a565b905092915050565b600081905092915050565b6000610db782610b30565b610dc18185610da1565b9350610dd1818560208601610b4c565b80840191505092915050565b6000610de98284610dac565b915081905092915050565b600082825260208201905092915050565b6000610e1082610b30565b610e1a8185610df4565b9350610e2a818560208601610b4c565b610e33816108c0565b840191505092915050565b610e4781610c93565b82525050565b60006040820190508181036000830152610e678185610e05565b9050610e766020830184610e3e565b9392505050565b7f4e487b7100000000000000000000000000000000000000000000000000000000600052602260045260246000fd5b60006002820490506001821680610ec457607f821691505b602082108103610ed757610ed6610e7d565b5b50919050565b60008190508160005260206000209050919050565b60006020601f8301049050919050565b600082821b905092915050565b600060088302610f3f7fffffffffffffffffffffffffffffffffffffffffffffffffffffffffffffffff82610f02565b610f498683610f02565b95508019841693508086168417925050509392505050565b6000819050919050565b6000610f86610f81610f7c84610c93565b610f61565b610c93565b9050919050565b6000819050919050565b610fa083610f6b565b610fb4610fac82610f8d565b848454610f0f565b825550505050565b600090565b610fc9610fbc565b610fd4818484610f97565b505050565b5b81811015610ff857610fed600082610fc1565b600181019050610fda565b5050565b601f82111561103d5761100e81610edd565b61101784610ef2565b81016020851015611026578190505b61103a61103285610ef2565b830182610fd9565b50505b505050565b600082821c905092915050565b600061106060001984600802611042565b1980831691505092915050565b6000611079838361104f565b9150826002028217905092915050565b61109282610b30565b67ffffffffffffffff8111156110ab576110aa6108d1565b5b6110b58254610eac565b6110c0828285610ffc565b600060209050601f8311600181146110f357600084156110e1578287015190505b6110eb858261106d565b865550611153565b601f19841661110186610edd565b60005b8281101561112957848901518255600182019150602085019450602081019050611104565b868310156111465784890151611142601f89168261104f565b8355505b6001600288020188555050505b505050505050565b7f4e487b7100000000000000000000000000000000000000000000000000000000600052603260045260246000fd5b7f4e487b7100000000000000000000000000000000000000000000000000000000600052601160045260246000fd5b60006111c482610c93565b91507fffffffffffffffffffffffffffffffffffffffffffffffffffffffffffffffff82036111f6576111f561118a565b5b60018201905091905056fea26469706673582212207d1f892dcb6d68352ace177b22192a0814cc4ac1e0a0cb24e6fe6b2b95f0127964736f6c634300081c0033",
  "linkReferences": {},
  "deployedLinkReferences": {}
}